{
  "contractName": "Voting",
  "abi": [
    {
      "anonymous": false,
      "inputs": [
        {
          "indexed": true,
          "internalType": "address",
          "name": "previousOwner",
          "type": "address"
        },
        {
          "indexed": true,
          "internalType": "address",
          "name": "newOwner",
          "type": "address"
        }
      ],
      "name": "OwnershipTransferred",
      "type": "event"
    },
    {
      "anonymous": false,
      "inputs": [
        {
          "indexed": false,
          "internalType": "uint256",
          "name": "proposalId",
          "type": "uint256"
        }
      ],
      "name": "ProposalRegistered",
      "type": "event"
    },
    {
      "anonymous": false,
      "inputs": [
        {
          "indexed": false,
          "internalType": "address",
          "name": "voter",
          "type": "address"
        },
        {
          "indexed": false,
          "internalType": "uint256",
          "name": "proposalId",
          "type": "uint256"
        }
      ],
      "name": "Voted",
      "type": "event"
    },
    {
      "anonymous": false,
      "inputs": [
        {
          "indexed": false,
          "internalType": "address",
          "name": "voterAddress",
          "type": "address"
        }
      ],
      "name": "VoterRegistered",
      "type": "event"
    },
    {
      "anonymous": false,
      "inputs": [
        {
          "indexed": false,
          "internalType": "enum Voting.WorkflowStatus",
          "name": "previousStatus",
          "type": "uint8"
        },
        {
          "indexed": false,
          "internalType": "enum Voting.WorkflowStatus",
          "name": "newStatus",
          "type": "uint8"
        }
      ],
      "name": "WorkflowStatusChange",
      "type": "event"
    },
    {
      "inputs": [],
      "name": "owner",
      "outputs": [
        {
          "internalType": "address",
          "name": "",
          "type": "address"
        }
      ],
      "stateMutability": "view",
      "type": "function",
      "constant": true
    },
    {
      "inputs": [
        {
          "internalType": "uint256",
          "name": "",
          "type": "uint256"
        }
      ],
      "name": "proposalsArray",
      "outputs": [
        {
          "internalType": "string",
          "name": "description",
          "type": "string"
        },
        {
          "internalType": "uint256",
          "name": "voteCount",
          "type": "uint256"
        }
      ],
      "stateMutability": "view",
      "type": "function",
      "constant": true
    },
    {
      "inputs": [],
      "name": "renounceOwnership",
      "outputs": [],
      "stateMutability": "nonpayable",
      "type": "function"
    },
    {
      "inputs": [
        {
          "internalType": "address",
          "name": "newOwner",
          "type": "address"
        }
      ],
      "name": "transferOwnership",
      "outputs": [],
      "stateMutability": "nonpayable",
      "type": "function"
    },
    {
      "inputs": [],
      "name": "workflowStatus",
      "outputs": [
        {
          "internalType": "enum Voting.WorkflowStatus",
          "name": "",
          "type": "uint8"
        }
      ],
      "stateMutability": "view",
      "type": "function",
      "constant": true
    },
    {
      "inputs": [],
      "name": "getWorkflowStatus",
      "outputs": [
        {
          "internalType": "enum Voting.WorkflowStatus",
          "name": "status",
          "type": "uint8"
        }
      ],
      "stateMutability": "view",
      "type": "function",
      "constant": true
    },
    {
      "inputs": [],
      "name": "getProposals",
      "outputs": [
        {
          "components": [
            {
              "internalType": "string",
              "name": "description",
              "type": "string"
            },
            {
              "internalType": "uint256",
              "name": "voteCount",
              "type": "uint256"
            }
          ],
          "internalType": "struct Voting.Proposal[]",
          "name": "",
          "type": "tuple[]"
        }
      ],
      "stateMutability": "view",
      "type": "function",
      "constant": true
    },
    {
      "inputs": [
        {
          "internalType": "address",
          "name": "_addr",
          "type": "address"
        }
      ],
      "name": "getVoter",
      "outputs": [
        {
          "components": [
            {
              "internalType": "bool",
              "name": "isRegistered",
              "type": "bool"
            },
            {
              "internalType": "bool",
              "name": "hasVoted",
              "type": "bool"
            },
            {
              "internalType": "uint256",
              "name": "votedProposalId",
              "type": "uint256"
            }
          ],
          "internalType": "struct Voting.Voter",
          "name": "",
          "type": "tuple"
        }
      ],
      "stateMutability": "view",
      "type": "function",
      "constant": true
    },
    {
      "inputs": [
        {
          "internalType": "uint256",
          "name": "_id",
          "type": "uint256"
        }
      ],
      "name": "getOneProposal",
      "outputs": [
        {
          "components": [
            {
              "internalType": "string",
              "name": "description",
              "type": "string"
            },
            {
              "internalType": "uint256",
              "name": "voteCount",
              "type": "uint256"
            }
          ],
          "internalType": "struct Voting.Proposal",
          "name": "",
          "type": "tuple"
        }
      ],
      "stateMutability": "view",
      "type": "function",
      "constant": true
    },
    {
      "inputs": [],
      "name": "getWinners",
      "outputs": [
        {
          "components": [
            {
              "internalType": "string",
              "name": "description",
              "type": "string"
            },
            {
              "internalType": "uint256",
              "name": "voteCount",
              "type": "uint256"
            }
          ],
          "internalType": "struct Voting.Proposal[]",
          "name": "",
          "type": "tuple[]"
        }
      ],
      "stateMutability": "view",
      "type": "function",
      "constant": true
    },
    {
      "inputs": [],
      "name": "getWinner",
      "outputs": [
        {
          "components": [
            {
              "internalType": "string",
              "name": "description",
              "type": "string"
            },
            {
              "internalType": "uint256",
              "name": "voteCount",
              "type": "uint256"
            }
          ],
          "internalType": "struct Voting.Proposal",
          "name": "",
          "type": "tuple"
        }
      ],
      "stateMutability": "view",
      "type": "function",
      "constant": true
    },
    {
      "inputs": [
        {
          "internalType": "address",
          "name": "_addr",
          "type": "address"
        }
      ],
      "name": "addVoter",
      "outputs": [],
      "stateMutability": "nonpayable",
      "type": "function"
    },
    {
      "inputs": [
        {
          "internalType": "string",
          "name": "_desc",
          "type": "string"
        }
      ],
      "name": "addProposal",
      "outputs": [],
      "stateMutability": "nonpayable",
      "type": "function"
    },
    {
      "inputs": [
        {
          "internalType": "uint256",
          "name": "_id",
          "type": "uint256"
        }
      ],
      "name": "setVote",
      "outputs": [],
      "stateMutability": "nonpayable",
      "type": "function"
    },
    {
      "inputs": [],
      "name": "startProposalsRegistering",
      "outputs": [],
      "stateMutability": "nonpayable",
      "type": "function"
    },
    {
      "inputs": [],
      "name": "endProposalsRegistering",
      "outputs": [],
      "stateMutability": "nonpayable",
      "type": "function"
    },
    {
      "inputs": [],
      "name": "startVotingSession",
      "outputs": [],
      "stateMutability": "nonpayable",
      "type": "function"
    },
    {
      "inputs": [],
      "name": "endVotingSession",
      "outputs": [],
      "stateMutability": "nonpayable",
      "type": "function"
    },
    {
      "inputs": [],
      "name": "tallyVotesDraw",
      "outputs": [],
      "stateMutability": "nonpayable",
      "type": "function"
    },
    {
      "inputs": [],
      "name": "tallyVotes",
      "outputs": [],
      "stateMutability": "nonpayable",
      "type": "function"
    }
  ],
  "bytecode": "0x60806040523480156200001157600080fd5b5062000032620000266200003860201b60201c565b6200004060201b60201c565b62000104565b600033905090565b60008060009054906101000a900473ffffffffffffffffffffffffffffffffffffffff169050816000806101000a81548173ffffffffffffffffffffffffffffffffffffffff021916908373ffffffffffffffffffffffffffffffffffffffff1602179055508173ffffffffffffffffffffffffffffffffffffffff168173ffffffffffffffffffffffffffffffffffffffff167f8be0079c531659141344cd1fd0a4f28419497f9722a3daafe3b4186f6b6457e060405160405180910390a35050565b61300b80620001146000396000f3fe608060405234801561001057600080fd5b506004361061012c5760003560e01c8063a7bfab16116100ad578063ee74c67811610071578063ee74c6781461029b578063f2fde38b146102a5578063f4ab9adf146102c1578063f75d64a6146102dd578063f86c6779146102fb5761012c565b8063a7bfab161461022f578063c7038a4e14610239578063c88af42f14610243578063d4f50f981461024d578063df15c37e1461027d5761012c565b8063715018a6116100f4578063715018a61461019b5780638da5cb5b146101a55780638e7ea5b2146101c3578063a1edffa2146101e1578063a2788cce146101ff5761012c565b8063230796ae146101315780632fdae3c51461014d578063378a2178146101695780633beee92e1461017357806362564c481461017d575b600080fd5b61014b600480360381019061014691906120eb565b61032c565b005b610167600480360381019061016291906120a2565b610629565b005b61017161086d565b005b61017b610a4e565b005b610185610db2565b604051610192919061258e565b60405180910390f35b6101a3610ead565b005b6101ad610f35565b6040516101ba919061254a565b60405180910390f35b6101cb610f5e565b6040516101d89190612846565b60405180910390f35b6101e96110ab565b6040516101f691906125b0565b60405180910390f35b610219600480360381019061021491906120eb565b6110be565b6040516102269190612846565b60405180910390f35b610237611196565b005b6102416112ef565b005b61024b611449565b005b61026760048036038101906102629190612075565b6115a3565b6040516102749190612868565b60405180910390f35b6102856116cb565b604051610292919061258e565b60405180910390f35b6102a361183b565b005b6102bf60048036038101906102ba9190612075565b611995565b005b6102db60048036038101906102d69190612075565b611a8d565b005b6102e5611cab565b6040516102f291906125b0565b60405180910390f35b610315600480360381019061031091906120eb565b611cc2565b604051610323929190612616565b60405180910390f35b600660003373ffffffffffffffffffffffffffffffffffffffff1673ffffffffffffffffffffffffffffffffffffffff16815260200190815260200160002060000160009054906101000a900460ff166103bb576040517f08c379a00000000000000000000000000000000000000000000000000000000081526004016103b290612686565b60405180910390fd5b600360058111156103cf576103ce612b18565b5b600460009054906101000a900460ff1660058111156103f1576103f0612b18565b5b14610431576040517f08c379a0000000000000000000000000000000000000000000000000000000008152600401610428906126a6565b60405180910390fd5b60011515600660003373ffffffffffffffffffffffffffffffffffffffff1673ffffffffffffffffffffffffffffffffffffffff16815260200190815260200160002060000160019054906101000a900460ff16151514156104c8576040517f08c379a00000000000000000000000000000000000000000000000000000000081526004016104bf90612826565b60405180910390fd5b600580549050811115610510576040517f08c379a000000000000000000000000000000000000000000000000000000000815260040161050790612726565b60405180910390fd5b80600660003373ffffffffffffffffffffffffffffffffffffffff1673ffffffffffffffffffffffffffffffffffffffff168152602001908152602001600020600101819055506001600660003373ffffffffffffffffffffffffffffffffffffffff1673ffffffffffffffffffffffffffffffffffffffff16815260200190815260200160002060000160016101000a81548160ff021916908315150217905550600581815481106105c6576105c5612b76565b5b906000526020600020906002020160010160008154809291906105e890612aa0565b91905055507f4d99b957a2bc29a30ebd96a7be8e68fe50a3c701db28a91436490b7d53870ca4338260405161061e929190612565565b60405180910390a150565b600660003373ffffffffffffffffffffffffffffffffffffffff1673ffffffffffffffffffffffffffffffffffffffff16815260200190815260200160002060000160009054906101000a900460ff166106b8576040517f08c379a00000000000000000000000000000000000000000000000000000000081526004016106af90612686565b60405180910390fd5b600160058111156106cc576106cb612b18565b5b600460009054906101000a900460ff1660058111156106ee576106ed612b18565b5b1461072e576040517f08c379a0000000000000000000000000000000000000000000000000000000008152600401610725906126c6565b60405180910390fd5b60405160200161073d90612786565b604051602081830303815290604052805190602001208160405160200161076491906125f4565b6040516020818303038152906040528051906020012014156107bb576040517f08c379a00000000000000000000000000000000000000000000000000000000081526004016107b290612706565b60405180910390fd5b6107c3611e4a565b81816000018190525060058190806001815401808255809150506001900390600052602060002090600202016000909190919091506000820151816000019080519060200190610814929190611e64565b506020820151816001015550507f92e393e9b54e2f801d3ea4beb0c5e71a21cc34a5d34b77d0fb8a3aa1650dc18f6001600580549050610854919061295a565b6040516108619190612883565b60405180910390a15050565b610875611d7e565b73ffffffffffffffffffffffffffffffffffffffff16610893610f35565b73ffffffffffffffffffffffffffffffffffffffff16146108e9576040517f08c379a00000000000000000000000000000000000000000000000000000000081526004016108e0906126e6565b60405180910390fd5b600460058111156108fd576108fc612b18565b5b600460009054906101000a900460ff16600581111561091f5761091e612b18565b5b1461095f576040517f08c379a0000000000000000000000000000000000000000000000000000000008152600401610956906127e6565b60405180910390fd5b600080600090505b6005805490508110156109dd576005828154811061098857610987612b76565b5b906000526020600020906002020160010154600582815481106109ae576109ad612b76565b5b90600052602060002090600202016001015411156109ca578091505b80806109d590612aa0565b915050610967565b50806003819055506005600460006101000a81548160ff02191690836005811115610a0b57610a0a612b18565b5b02179055507f0a97a4ee45751e2abf3e4fc8946939630b11b371ea8ae39ccdc3056e98f5cc3f60046005604051610a439291906125cb565b60405180910390a150565b610a56611d7e565b73ffffffffffffffffffffffffffffffffffffffff16610a74610f35565b73ffffffffffffffffffffffffffffffffffffffff1614610aca576040517f08c379a0000000000000000000000000000000000000000000000000000000008152600401610ac1906126e6565b60405180910390fd5b60046005811115610ade57610add612b18565b5b600460009054906101000a900460ff166005811115610b0057610aff612b18565b5b14610b40576040517f08c379a0000000000000000000000000000000000000000000000000000000008152600401610b37906127e6565b60405180910390fd5b6000610b4a611eea565b600080600090505b600580549050811015610c57576005821015610c44578360058281548110610b7d57610b7c612b76565b5b9060005260206000209060020201600101541415610bc15780838360058110610ba957610ba8612b76565b5b6020020181815250508180610bbd90612aa0565b9250505b8360058281548110610bd657610bd5612b76565b5b9060005260206000209060020201600101541115610c4357610bf6611eea565b92508083600060058110610c0d57610c0c612b76565b5b60200201818152505060058181548110610c2a57610c29612b76565b5b9060005260206000209060020201600101549350600191505b5b8080610c4f90612aa0565b915050610b52565b5060005b81811015610d46576001838260058110610c7857610c77612b76565b5b6020020151908060018154018082558091505060019003906000526020600020016000909190919091505560026005848360058110610cba57610cb9612b76565b5b602002015181548110610cd057610ccf612b76565b5b906000526020600020906002020190806001815401808255809150506001900390600052602060002090600202016000909190919091506000820181600001908054610d1b90612a3d565b610d26929190611f0c565b506001820154816001015550508080610d3e90612aa0565b915050610c5b565b506005600460006101000a81548160ff02191690836005811115610d6d57610d6c612b18565b5b02179055507f0a97a4ee45751e2abf3e4fc8946939630b11b371ea8ae39ccdc3056e98f5cc3f60046005604051610da59291906125cb565b60405180910390a1505050565b60606005805480602002602001604051908101604052809291908181526020016000905b82821015610ea45783829060005260206000209060020201604051806040016040529081600082018054610e0990612a3d565b80601f0160208091040260200160405190810160405280929190818152602001828054610e3590612a3d565b8015610e825780601f10610e5757610100808354040283529160200191610e82565b820191906000526020600020905b815481529060010190602001808311610e6557829003601f168201915b5050505050815260200160018201548152505081526020019060010190610dd6565b50505050905090565b610eb5611d7e565b73ffffffffffffffffffffffffffffffffffffffff16610ed3610f35565b73ffffffffffffffffffffffffffffffffffffffff1614610f29576040517f08c379a0000000000000000000000000000000000000000000000000000000008152600401610f20906126e6565b60405180910390fd5b610f336000611d86565b565b60008060009054906101000a900473ffffffffffffffffffffffffffffffffffffffff16905090565b610f66611e4a565b600580811115610f7957610f78612b18565b5b600460009054906101000a900460ff166005811115610f9b57610f9a612b18565b5b14610fdb576040517f08c379a0000000000000000000000000000000000000000000000000000000008152600401610fd290612766565b60405180910390fd5b600560035481548110610ff157610ff0612b76565b5b906000526020600020906002020160405180604001604052908160008201805461101a90612a3d565b80601f016020809104026020016040519081016040528092919081815260200182805461104690612a3d565b80156110935780601f1061106857610100808354040283529160200191611093565b820191906000526020600020905b81548152906001019060200180831161107657829003601f168201915b50505050508152602001600182015481525050905090565b600460009054906101000a900460ff1681565b6110c6611e4a565b600582815481106110da576110d9612b76565b5b906000526020600020906002020160405180604001604052908160008201805461110390612a3d565b80601f016020809104026020016040519081016040528092919081815260200182805461112f90612a3d565b801561117c5780601f106111515761010080835404028352916020019161117c565b820191906000526020600020905b81548152906001019060200180831161115f57829003601f168201915b505050505081526020016001820154815250509050919050565b61119e611d7e565b73ffffffffffffffffffffffffffffffffffffffff166111bc610f35565b73ffffffffffffffffffffffffffffffffffffffff1614611212576040517f08c379a0000000000000000000000000000000000000000000000000000000008152600401611209906126e6565b60405180910390fd5b6003600581111561122657611225612b18565b5b600460009054906101000a900460ff16600581111561124857611247612b18565b5b14611288576040517f08c379a000000000000000000000000000000000000000000000000000000000815260040161127f906126a6565b60405180910390fd5b60048060006101000a81548160ff021916908360058111156112ad576112ac612b18565b5b02179055507f0a97a4ee45751e2abf3e4fc8946939630b11b371ea8ae39ccdc3056e98f5cc3f600360046040516112e59291906125cb565b60405180910390a1565b6112f7611d7e565b73ffffffffffffffffffffffffffffffffffffffff16611315610f35565b73ffffffffffffffffffffffffffffffffffffffff161461136b576040517f08c379a0000000000000000000000000000000000000000000000000000000008152600401611362906126e6565b60405180910390fd5b6000600581111561137f5761137e612b18565b5b600460009054906101000a900460ff1660058111156113a1576113a0612b18565b5b146113e1576040517f08c379a00000000000000000000000000000000000000000000000000000000081526004016113d8906127a6565b60405180910390fd5b6001600460006101000a81548160ff0219169083600581111561140757611406612b18565b5b02179055507f0a97a4ee45751e2abf3e4fc8946939630b11b371ea8ae39ccdc3056e98f5cc3f6000600160405161143f9291906125cb565b60405180910390a1565b611451611d7e565b73ffffffffffffffffffffffffffffffffffffffff1661146f610f35565b73ffffffffffffffffffffffffffffffffffffffff16146114c5576040517f08c379a00000000000000000000000000000000000000000000000000000000081526004016114bc906126e6565b60405180910390fd5b600160058111156114d9576114d8612b18565b5b600460009054906101000a900460ff1660058111156114fb576114fa612b18565b5b1461153b576040517f08c379a0000000000000000000000000000000000000000000000000000000008152600401611532906127c6565b60405180910390fd5b6002600460006101000a81548160ff0219169083600581111561156157611560612b18565b5b02179055507f0a97a4ee45751e2abf3e4fc8946939630b11b371ea8ae39ccdc3056e98f5cc3f600160026040516115999291906125cb565b60405180910390a1565b6115ab611f99565b600660003373ffffffffffffffffffffffffffffffffffffffff1673ffffffffffffffffffffffffffffffffffffffff16815260200190815260200160002060000160009054906101000a900460ff1661163a576040517f08c379a000000000000000000000000000000000000000000000000000000000815260040161163190612686565b60405180910390fd5b600660008373ffffffffffffffffffffffffffffffffffffffff1673ffffffffffffffffffffffffffffffffffffffff1681526020019081526020016000206040518060600160405290816000820160009054906101000a900460ff161515151581526020016000820160019054906101000a900460ff161515151581526020016001820154815250509050919050565b60606005808111156116e0576116df612b18565b5b600460009054906101000a900460ff16600581111561170257611701612b18565b5b14611742576040517f08c379a000000000000000000000000000000000000000000000000000000000815260040161173990612766565b60405180910390fd5b6002805480602002602001604051908101604052809291908181526020016000905b82821015611832578382906000526020600020906002020160405180604001604052908160008201805461179790612a3d565b80601f01602080910402602001604051908101604052809291908181526020018280546117c390612a3d565b80156118105780601f106117e557610100808354040283529160200191611810565b820191906000526020600020905b8154815290600101906020018083116117f357829003601f168201915b5050505050815260200160018201548152505081526020019060010190611764565b50505050905090565b611843611d7e565b73ffffffffffffffffffffffffffffffffffffffff16611861610f35565b73ffffffffffffffffffffffffffffffffffffffff16146118b7576040517f08c379a00000000000000000000000000000000000000000000000000000000081526004016118ae906126e6565b60405180910390fd5b600260058111156118cb576118ca612b18565b5b600460009054906101000a900460ff1660058111156118ed576118ec612b18565b5b1461192d576040517f08c379a000000000000000000000000000000000000000000000000000000000815260040161192490612746565b60405180910390fd5b6003600460006101000a81548160ff0219169083600581111561195357611952612b18565b5b02179055507f0a97a4ee45751e2abf3e4fc8946939630b11b371ea8ae39ccdc3056e98f5cc3f6002600360405161198b9291906125cb565b60405180910390a1565b61199d611d7e565b73ffffffffffffffffffffffffffffffffffffffff166119bb610f35565b73ffffffffffffffffffffffffffffffffffffffff1614611a11576040517f08c379a0000000000000000000000000000000000000000000000000000000008152600401611a08906126e6565b60405180910390fd5b600073ffffffffffffffffffffffffffffffffffffffff168173ffffffffffffffffffffffffffffffffffffffff161415611a81576040517f08c379a0000000000000000000000000000000000000000000000000000000008152600401611a7890612646565b60405180910390fd5b611a8a81611d86565b50565b611a95611d7e565b73ffffffffffffffffffffffffffffffffffffffff16611ab3610f35565b73ffffffffffffffffffffffffffffffffffffffff1614611b09576040517f08c379a0000000000000000000000000000000000000000000000000000000008152600401611b00906126e6565b60405180910390fd5b60006005811115611b1d57611b1c612b18565b5b600460009054906101000a900460ff166005811115611b3f57611b3e612b18565b5b14611b7f576040517f08c379a0000000000000000000000000000000000000000000000000000000008152600401611b7690612806565b60405180910390fd5b60011515600660008373ffffffffffffffffffffffffffffffffffffffff1673ffffffffffffffffffffffffffffffffffffffff16815260200190815260200160002060000160009054906101000a900460ff1615151415611c16576040517f08c379a0000000000000000000000000000000000000000000000000000000008152600401611c0d90612666565b60405180910390fd5b6001600660008373ffffffffffffffffffffffffffffffffffffffff1673ffffffffffffffffffffffffffffffffffffffff16815260200190815260200160002060000160006101000a81548160ff0219169083151502179055507fb6be2187d059cc2a55fe29e0e503b566e1e0f8c8780096e185429350acffd3dd81604051611ca0919061254a565b60405180910390a150565b6000600460009054906101000a900460ff16905090565b60058181548110611cd257600080fd5b9060005260206000209060020201600091509050806000018054611cf590612a3d565b80601f0160208091040260200160405190810160405280929190818152602001828054611d2190612a3d565b8015611d6e5780601f10611d4357610100808354040283529160200191611d6e565b820191906000526020600020905b815481529060010190602001808311611d5157829003601f168201915b5050505050908060010154905082565b600033905090565b60008060009054906101000a900473ffffffffffffffffffffffffffffffffffffffff169050816000806101000a81548173ffffffffffffffffffffffffffffffffffffffff021916908373ffffffffffffffffffffffffffffffffffffffff1602179055508173ffffffffffffffffffffffffffffffffffffffff168173ffffffffffffffffffffffffffffffffffffffff167f8be0079c531659141344cd1fd0a4f28419497f9722a3daafe3b4186f6b6457e060405160405180910390a35050565b604051806040016040528060608152602001600081525090565b828054611e7090612a3d565b90600052602060002090601f016020900481019282611e925760008555611ed9565b82601f10611eab57805160ff1916838001178555611ed9565b82800160010185558215611ed9579182015b82811115611ed8578251825591602001919060010190611ebd565b5b509050611ee69190611fbe565b5090565b6040518060a00160405280600590602082028036833780820191505090505090565b828054611f1890612a3d565b90600052602060002090601f016020900481019282611f3a5760008555611f88565b82601f10611f4b5780548555611f88565b82800160010185558215611f8857600052602060002091601f016020900482015b82811115611f87578254825591600101919060010190611f6c565b5b509050611f959190611fbe565b5090565b6040518060600160405280600015158152602001600015158152602001600081525090565b5b80821115611fd7576000816000905550600101611fbf565b5090565b6000611fee611fe9846128c3565b61289e565b90508281526020810184848401111561200a57612009612bd9565b5b6120158482856129fb565b509392505050565b60008135905061202c81612fa7565b92915050565b600082601f83011261204757612046612bd4565b5b8135612057848260208601611fdb565b91505092915050565b60008135905061206f81612fbe565b92915050565b60006020828403121561208b5761208a612be3565b5b60006120998482850161201d565b91505092915050565b6000602082840312156120b8576120b7612be3565b5b600082013567ffffffffffffffff8111156120d6576120d5612bde565b5b6120e284828501612032565b91505092915050565b60006020828403121561210157612100612be3565b5b600061210f84828501612060565b91505092915050565b60006121248383612470565b905092915050565b6121358161298e565b82525050565b600061214682612904565b6121508185612927565b935083602082028501612162856128f4565b8060005b8581101561219e578484038952815161217f8582612118565b945061218a8361291a565b925060208a01995050600181019050612166565b50829750879550505050505092915050565b6121b9816129a0565b82525050565b6121c8816129e9565b82525050565b60006121d98261290f565b6121e38185612938565b93506121f3818560208601612a0a565b6121fc81612be8565b840191505092915050565b60006122128261290f565b61221c8185612949565b935061222c818560208601612a0a565b61223581612be8565b840191505092915050565b600061224d602683612949565b915061225882612bf9565b604082019050919050565b6000612270601283612949565b915061227b82612c48565b602082019050919050565b6000612293601283612949565b915061229e82612c71565b602082019050919050565b60006122b6602183612949565b91506122c182612c9a565b604082019050919050565b60006122d9601d83612949565b91506122e482612ce9565b602082019050919050565b60006122fc602083612949565b915061230782612d12565b602082019050919050565b600061231f602383612949565b915061232a82612d3b565b604082019050919050565b6000612342601283612949565b915061234d82612d8a565b602082019050919050565b6000612365602b83612949565b915061237082612db3565b604082019050919050565b6000612388601983612949565b915061239382612e02565b602082019050919050565b60006123ab600083612949565b91506123b682612e2b565b600082019050919050565b60006123ce602983612949565b91506123d982612e2e565b604082019050919050565b60006123f1602883612949565b91506123fc82612e7d565b604082019050919050565b6000612414602a83612949565b915061241f82612ecc565b604082019050919050565b6000612437602383612949565b915061244282612f1b565b604082019050919050565b600061245a601683612949565b915061246582612f6a565b602082019050919050565b6000604083016000830151848203600086015261248d82826121ce565b91505060208301516124a2602086018261252c565b508091505092915050565b600060408301600083015184820360008601526124ca82826121ce565b91505060208301516124df602086018261252c565b508091505092915050565b60608201600082015161250060008501826121b0565b50602082015161251360208501826121b0565b506040820151612526604085018261252c565b50505050565b612535816129df565b82525050565b612544816129df565b82525050565b600060208201905061255f600083018461212c565b92915050565b600060408201905061257a600083018561212c565b612587602083018461253b565b9392505050565b600060208201905081810360008301526125a8818461213b565b905092915050565b60006020820190506125c560008301846121bf565b92915050565b60006040820190506125e060008301856121bf565b6125ed60208301846121bf565b9392505050565b6000602082019050818103600083015261260e8184612207565b905092915050565b600060408201905081810360008301526126308185612207565b905061263f602083018461253b565b9392505050565b6000602082019050818103600083015261265f81612240565b9050919050565b6000602082019050818103600083015261267f81612263565b9050919050565b6000602082019050818103600083015261269f81612286565b9050919050565b600060208201905081810360008301526126bf816122a9565b9050919050565b600060208201905081810360008301526126df816122cc565b9050919050565b600060208201905081810360008301526126ff816122ef565b9050919050565b6000602082019050818103600083015261271f81612312565b9050919050565b6000602082019050818103600083015261273f81612335565b9050919050565b6000602082019050818103600083015261275f81612358565b9050919050565b6000602082019050818103600083015261277f8161237b565b9050919050565b6000602082019050818103600083015261279f8161239e565b9050919050565b600060208201905081810360008301526127bf816123c1565b9050919050565b600060208201905081810360008301526127df816123e4565b9050919050565b600060208201905081810360008301526127ff81612407565b9050919050565b6000602082019050818103600083015261281f8161242a565b9050919050565b6000602082019050818103600083015261283f8161244d565b9050919050565b6000602082019050818103600083015261286081846124ad565b905092915050565b600060608201905061287d60008301846124ea565b92915050565b6000602082019050612898600083018461253b565b92915050565b60006128a86128b9565b90506128b48282612a6f565b919050565b6000604051905090565b600067ffffffffffffffff8211156128de576128dd612ba5565b5b6128e782612be8565b9050602081019050919050565b6000819050602082019050919050565b600081519050919050565b600081519050919050565b6000602082019050919050565b600082825260208201905092915050565b600082825260208201905092915050565b600082825260208201905092915050565b6000612965826129df565b9150612970836129df565b92508282101561298357612982612ae9565b5b828203905092915050565b6000612999826129bf565b9050919050565b60008115159050919050565b60008190506129ba82612f93565b919050565b600073ffffffffffffffffffffffffffffffffffffffff82169050919050565b6000819050919050565b60006129f4826129ac565b9050919050565b82818337600083830152505050565b60005b83811015612a28578082015181840152602081019050612a0d565b83811115612a37576000848401525b50505050565b60006002820490506001821680612a5557607f821691505b60208210811415612a6957612a68612b47565b5b50919050565b612a7882612be8565b810181811067ffffffffffffffff82111715612a9757612a96612ba5565b5b80604052505050565b6000612aab826129df565b91507fffffffffffffffffffffffffffffffffffffffffffffffffffffffffffffffff821415612ade57612add612ae9565b5b600182019050919050565b7f4e487b7100000000000000000000000000000000000000000000000000000000600052601160045260246000fd5b7f4e487b7100000000000000000000000000000000000000000000000000000000600052602160045260246000fd5b7f4e487b7100000000000000000000000000000000000000000000000000000000600052602260045260246000fd5b7f4e487b7100000000000000000000000000000000000000000000000000000000600052603260045260246000fd5b7f4e487b7100000000000000000000000000000000000000000000000000000000600052604160045260246000fd5b600080fd5b600080fd5b600080fd5b600080fd5b6000601f19601f8301169050919050565b7f4f776e61626c653a206e6577206f776e657220697320746865207a65726f206160008201527f6464726573730000000000000000000000000000000000000000000000000000602082015250565b7f416c726561647920726567697374657265640000000000000000000000000000600082015250565b7f596f75277265206e6f74206120766f7465720000000000000000000000000000600082015250565b7f566f74696e672073657373696f6e20686176656e74207374617274656420796560008201527f7400000000000000000000000000000000000000000000000000000000000000602082015250565b7f50726f706f73616c7320617265206e6f7420616c6c6f77656420796574000000600082015250565b7f4f776e61626c653a2063616c6c6572206973206e6f7420746865206f776e6572600082015250565b7f566f7573206e6520706f7576657a20706173206e65207269656e2070726f706f60008201527f7365720000000000000000000000000000000000000000000000000000000000602082015250565b7f50726f706f73616c206e6f7420666f756e640000000000000000000000000000600082015250565b7f5265676973746572696e672070726f706f73616c73207068617365206973206e60008201527f6f742066696e6973686564000000000000000000000000000000000000000000602082015250565b7f566f74657320617265206e6f742074616c6c6965642079657400000000000000600082015250565b50565b7f5265676973746572696e672070726f706f73616c732063616e7420626520737460008201527f6172746564206e6f770000000000000000000000000000000000000000000000602082015250565b7f5265676973746572696e672070726f706f73616c7320686176656e742073746160008201527f7274656420796574000000000000000000000000000000000000000000000000602082015250565b7f43757272656e7420737461747573206973206e6f7420766f74696e672073657360008201527f73696f6e20656e64656400000000000000000000000000000000000000000000602082015250565b7f566f7465727320726567697374726174696f6e206973206e6f74206f70656e2060008201527f7965740000000000000000000000000000000000000000000000000000000000602082015250565b7f596f75206861766520616c726561647920766f74656400000000000000000000600082015250565b60068110612fa457612fa3612b18565b5b50565b612fb08161298e565b8114612fbb57600080fd5b50565b612fc7816129df565b8114612fd257600080fd5b5056fea2646970667358221220711f9d579ee25b340d55ca0f67dd5e6bb9a12c629ec8c807b1aacb2c07c76e0564736f6c63430008070033",
  "immutableReferences": {},
  "source": "// SPDX-License-Identifier: MIT\npragma solidity 0.8.7;\nimport \"./OpenZeppelin/access/Ownable.sol\";\n\n/**\n * @title Smart voting contract with only one choice per voter registered in a white list\n * @notice You can use this contract for a simple vote\n * @dev All features have been verified with Truffle are functional without side effects. We have chosen to use Ownable from OpenZeppelin library.\n */\ncontract Voting is Ownable {\n\n    /// @dev arrays for draw, uint for single\n    uint[] winningProposalsID;\n    Proposal[] winningProposals;\n    uint winningProposalID;\n    \n    /**\n     * @notice Structure of a voter to know if he is registered, if he voted and the chosen proposal\n     * @dev Boolean for registration and voting, voted proposal id\n     */\n    struct Voter {\n        bool isRegistered;\n        bool hasVoted;\n        uint votedProposalId;\n    }\n\n    /**\n     * @notice Structure of a proposal with its description and number of votes\n     * @dev String for description and uint to count the number of votes per proposal\n     */\n    struct Proposal {\n        string description;\n        uint voteCount;\n    }\n\n    /**\n     * @notice Allows us to know where we are in the contract, more precisely we talk about the state, a follow-up\n     * @dev The owner of contract proceeds to the state change according to the different scenarios, represented by an enum\n     */\n    enum  WorkflowStatus {\n        RegisteringVoters,\n        ProposalsRegistrationStarted,\n        ProposalsRegistrationEnded,\n        VotingSessionStarted,\n        VotingSessionEnded,\n        VotesTallied\n    }\n\n    WorkflowStatus public workflowStatus;\n    Proposal[] public proposalsArray;\n    mapping (address => Voter) private voters;\n\n    event VoterRegistered(address voterAddress); \n    event WorkflowStatusChange(WorkflowStatus previousStatus, WorkflowStatus newStatus);\n    event ProposalRegistered(uint proposalId);\n    event Voted (address voter, uint proposalId);\n\n    /**\n     * @notice Only voters admitted to the white list can perform certain actions\n     * @dev If a voter is registered then it can execute some functions, otherwise an error message is displayed instead\n     */\n    modifier onlyVoters() {\n        require(voters[msg.sender].isRegistered, \"You're not a voter\");\n        _;\n    }\n    \n    // ::::::::::::: GETTERS ::::::::::::: //\n\n    /**\n     * @notice Retrieves the current state of the contract\n     * @dev The value of workflowStatus is returned\n     */\n    function getWorkflowStatus() external view returns (WorkflowStatus status) {\n        return workflowStatus;\n    }\n\n    /**\n     * @notice Retrieves all the proposals of the contract\n     * @dev The value of proposalsArray is returned\n     */\n    function getProposals() external view returns(Proposal[] memory) {\n        return proposalsArray;\n    }\n\n    /**\n     * @notice Find the voter by his address. Voters only can execute this function\n     * @dev This returns the structure of the voter chosen by his address, we can then know if he is registered, if he has voted and the proposal voted\n     */\n    function getVoter(address _addr) external onlyVoters view returns (Voter memory) {\n        return voters[_addr];\n    }\n    \n    /**\n     * @notice Retrieves a proposal by its id\n     * @dev Uses the id of a proposal to retrieve a proposal along with its description and number of votes\n     */\n    function getOneProposal(uint _id) external view returns (Proposal memory) {\n        return proposalsArray[_id];\n    }\n\n    /**\n     * @notice Retrieves winners if there is a draw after the votes are tallied\n     * @dev If the voting status is tallied then we can get the winners in case of a draw\n     */\n    function getWinners() external view returns (Proposal[] memory) {\n        require(workflowStatus == WorkflowStatus.VotesTallied, 'Votes are not tallied yet');\n        return winningProposals;\n    }\n\n    /**\n     * @notice Retrieves the winner of the vote\n     * @dev If the voting status is tallied then we can get the winner, if multiple winners it should not be used\n     */\n    function getWinner() external view returns (Proposal memory) {\n        require(workflowStatus == WorkflowStatus.VotesTallied, 'Votes are not tallied yet');\n        return proposalsArray[winningProposalID];\n    }\n \n    // ::::::::::::: REGISTRATION ::::::::::::: // \n\n    /**\n     * @notice The owner can add a voter\n     * @dev If the workflow state is RegisteringVoters, and the id of the voter passed in parameter is not already registered\n     */\n    function addVoter(address _addr) external onlyOwner {\n        require(workflowStatus == WorkflowStatus.RegisteringVoters, 'Voters registration is not open yet');\n        require(voters[_addr].isRegistered != true, 'Already registered');\n    \n        voters[_addr].isRegistered = true;\n        emit VoterRegistered(_addr);\n    }\n\n    // ::::::::::::: PROPOSAL ::::::::::::: // \n\n    /**\n     * @notice Adds a proposition with a description, only voters can use this function\n     * @dev The voter must submit a description for his proposal, the state must be ProposalsRegistrationStarted\n     */\n    function addProposal(string memory _desc) external onlyVoters {\n        require(workflowStatus == WorkflowStatus.ProposalsRegistrationStarted, 'Proposals are not allowed yet');\n        require(keccak256(abi.encode(_desc)) != keccak256(abi.encode(\"\")), 'Vous ne pouvez pas ne rien proposer'); // facultatif\n        // voir que desc est different des autres\n\n        Proposal memory proposal;\n        proposal.description = _desc;\n        proposalsArray.push(proposal);\n        emit ProposalRegistered(proposalsArray.length-1);\n    }\n\n    // ::::::::::::: VOTE ::::::::::::: //\n\n    /**\n     * @notice Submit a vote by its id, only voters can use this function\n     * @dev The voter must submit a vote for his favorite proposal, the state must be VotingSessionStarted, the proposal id must exist and the voter can only vote once\n     */\n    function setVote( uint _id) external onlyVoters {\n        require(workflowStatus == WorkflowStatus.VotingSessionStarted, 'Voting session havent started yet');\n        require(voters[msg.sender].hasVoted != true, 'You have already voted');\n        require(_id <= proposalsArray.length, 'Proposal not found'); // pas oblig, et pas besoin du >0 car uint\n\n        voters[msg.sender].votedProposalId = _id;\n        voters[msg.sender].hasVoted = true;\n        proposalsArray[_id].voteCount++;\n\n        emit Voted(msg.sender, _id);\n    }\n\n    // ::::::::::::: STATE ::::::::::::: //\n\n    /**\n     * @notice Go to proposal registration status, only the owner can execute this function\n     * @dev The status must be RegisteringVoters, then the status becomes ProposalsRegistrationStarted\n     */\n    function startProposalsRegistering() external onlyOwner {\n        require(workflowStatus == WorkflowStatus.RegisteringVoters, 'Registering proposals cant be started now');\n        workflowStatus = WorkflowStatus.ProposalsRegistrationStarted;\n        emit WorkflowStatusChange(WorkflowStatus.RegisteringVoters, WorkflowStatus.ProposalsRegistrationStarted);\n    }\n\n    /**\n     * @notice End proposal registration, only the owner can execute this function\n     * @dev The status must be ProposalsRegistrationStarted, then the status becomes ProposalsRegistrationEnded\n     */\n    function endProposalsRegistering() external onlyOwner {\n        require(workflowStatus == WorkflowStatus.ProposalsRegistrationStarted, 'Registering proposals havent started yet');\n        workflowStatus = WorkflowStatus.ProposalsRegistrationEnded;\n        emit WorkflowStatusChange(WorkflowStatus.ProposalsRegistrationStarted, WorkflowStatus.ProposalsRegistrationEnded);\n    }\n\n    /**\n     * @notice Go to voting session status, only the owner can execute this function\n     * @dev The status must be ProposalsRegistrationEnded, then the status becomes VotingSessionStarted\n     */\n    function startVotingSession() external onlyOwner {\n        require(workflowStatus == WorkflowStatus.ProposalsRegistrationEnded, 'Registering proposals phase is not finished');\n        workflowStatus = WorkflowStatus.VotingSessionStarted;\n        emit WorkflowStatusChange(WorkflowStatus.ProposalsRegistrationEnded, WorkflowStatus.VotingSessionStarted);\n    }\n\n    /**\n     * @notice End voting session, only the owner can execute this function\n     * @dev The status must be VotingSessionStarted, then the status becomes VotingSessionEnded\n     */\n    function endVotingSession() external onlyOwner {\n        require(workflowStatus == WorkflowStatus.VotingSessionStarted, 'Voting session havent started yet');\n        workflowStatus = WorkflowStatus.VotingSessionEnded;\n        emit WorkflowStatusChange(WorkflowStatus.VotingSessionStarted, WorkflowStatus.VotingSessionEnded);\n    }\n\n    /**\n     * @notice Tally the votes in case of a draw, only the owner can execute this function\n     * @dev The status must be VotingSessionEnded, then the status becomes VotesTallied\n     */\n    function tallyVotesDraw() external onlyOwner {\n       require(workflowStatus == WorkflowStatus.VotingSessionEnded, \"Current status is not voting session ended\");\n        uint highestCount;\n        uint[5] memory winners; // egalite entre 5 proposals max\n        uint nbWinners;\n        for (uint i = 0; i < proposalsArray.length; i++) {\n            if (nbWinners<5){\n                if (proposalsArray[i].voteCount == highestCount) {\n                    winners[nbWinners]=i;\n                    nbWinners++;\n                }\n                if (proposalsArray[i].voteCount > highestCount) {\n                    delete winners;\n                    winners[0]= i;\n                    highestCount = proposalsArray[i].voteCount;\n                    nbWinners=1;\n                }\n            }\n        }\n        for(uint j=0;j<nbWinners;j++){\n            winningProposalsID.push(winners[j]);\n            winningProposals.push(proposalsArray[winners[j]]);\n        }\n        workflowStatus = WorkflowStatus.VotesTallied;\n        emit WorkflowStatusChange(WorkflowStatus.VotingSessionEnded, WorkflowStatus.VotesTallied);\n    }\n\n    /**\n     * @notice Tally the votes, only the owner can execute this function\n     * @dev The status must be VotingSessionEnded, then the status becomes VotesTallied\n     */\n    function tallyVotes() external onlyOwner {\n        require(workflowStatus == WorkflowStatus.VotingSessionEnded, \"Current status is not voting session ended\");\n        uint _winningProposalId;\n        for (uint256 p = 0; p < proposalsArray.length; p++) {\n            if (proposalsArray[p].voteCount > proposalsArray[_winningProposalId].voteCount) {\n                _winningProposalId = p;\n            }\n        }\n        winningProposalID = _winningProposalId;\n        workflowStatus = WorkflowStatus.VotesTallied;\n        emit WorkflowStatusChange(WorkflowStatus.VotingSessionEnded, WorkflowStatus.VotesTallied);\n    }\n}",
  "sourcePath": "/home/sly/dev/testBox/contracts/Voting.sol",
  "compiler": {
    "name": "solc",
    "version": "0.8.7+commit.e28d00a7.Emscripten.clang"
  },
  "schemaVersion": "3.4.3",
  "updatedAt": "2021-11-27T16:14:21.002Z",
  "networkType": "ethereum",
  "devdoc": {
    "details": "All features have been verified with Truffle are functional without side effects. We have chosen to use Ownable from OpenZeppelin library.",
    "kind": "dev",
    "methods": {
      "addProposal(string)": {
        "details": "The voter must submit a description for his proposal, the state must be ProposalsRegistrationStarted"
      },
      "addVoter(address)": {
        "details": "If the workflow state is RegisteringVoters, and the id of the voter passed in parameter is not already registered"
      },
      "endProposalsRegistering()": {
        "details": "The status must be ProposalsRegistrationStarted, then the status becomes ProposalsRegistrationEnded"
      },
      "endVotingSession()": {
        "details": "The status must be VotingSessionStarted, then the status becomes VotingSessionEnded"
      },
      "getOneProposal(uint256)": {
        "details": "Uses the id of a proposal to retrieve a proposal along with its description and number of votes"
      },
      "getProposals()": {
        "details": "The value of proposalsArray is returned"
      },
      "getVoter(address)": {
        "details": "This returns the structure of the voter chosen by his address, we can then know if he is registered, if he has voted and the proposal voted"
      },
      "getWinner()": {
        "details": "If the voting status is tallied then we can get the winner, if multiple winners it should not be used"
      },
      "getWinners()": {
        "details": "If the voting status is tallied then we can get the winners in case of a draw"
      },
      "getWorkflowStatus()": {
        "details": "The value of workflowStatus is returned"
      },
      "owner()": {
        "details": "Returns the address of the current owner."
      },
      "renounceOwnership()": {
        "details": "Leaves the contract without owner. It will not be possible to call `onlyOwner` functions anymore. Can only be called by the current owner. NOTE: Renouncing ownership will leave the contract without an owner, thereby removing any functionality that is only available to the owner."
      },
      "setVote(uint256)": {
        "details": "The voter must submit a vote for his favorite proposal, the state must be VotingSessionStarted, the proposal id must exist and the voter can only vote once"
      },
      "startProposalsRegistering()": {
        "details": "The status must be RegisteringVoters, then the status becomes ProposalsRegistrationStarted"
      },
      "startVotingSession()": {
        "details": "The status must be ProposalsRegistrationEnded, then the status becomes VotingSessionStarted"
      },
      "tallyVotes()": {
        "details": "The status must be VotingSessionEnded, then the status becomes VotesTallied"
      },
      "tallyVotesDraw()": {
        "details": "The status must be VotingSessionEnded, then the status becomes VotesTallied"
      },
      "transferOwnership(address)": {
        "details": "Transfers ownership of the contract to a new account (`newOwner`). Can only be called by the current owner."
      }
    },
    "stateVariables": {
      "winningProposalsID": {
        "details": "arrays for draw, uint for single"
      }
    },
    "title": "Smart voting contract with only one choice per voter registered in a white list",
    "version": 1
  },
  "userdoc": {
    "kind": "user",
    "methods": {
      "addProposal(string)": {
        "notice": "Adds a proposition with a description, only voters can use this function"
      },
      "addVoter(address)": {
        "notice": "The owner can add a voter"
      },
      "endProposalsRegistering()": {
        "notice": "End proposal registration, only the owner can execute this function"
      },
      "endVotingSession()": {
        "notice": "End voting session, only the owner can execute this function"
      },
      "getOneProposal(uint256)": {
        "notice": "Retrieves a proposal by its id"
      },
      "getProposals()": {
        "notice": "Retrieves all the proposals of the contract"
      },
      "getVoter(address)": {
        "notice": "Find the voter by his address. Voters only can execute this function"
      },
      "getWinner()": {
        "notice": "Retrieves the winner of the vote"
      },
      "getWinners()": {
        "notice": "Retrieves winners if there is a draw after the votes are tallied"
      },
      "getWorkflowStatus()": {
        "notice": "Retrieves the current state of the contract"
      },
      "setVote(uint256)": {
        "notice": "Submit a vote by its id, only voters can use this function"
      },
      "startProposalsRegistering()": {
        "notice": "Go to proposal registration status, only the owner can execute this function"
      },
      "startVotingSession()": {
        "notice": "Go to voting session status, only the owner can execute this function"
      },
      "tallyVotes()": {
        "notice": "Tally the votes, only the owner can execute this function"
      },
      "tallyVotesDraw()": {
        "notice": "Tally the votes in case of a draw, only the owner can execute this function"
      }
    },
    "notice": "You can use this contract for a simple vote",
    "version": 1
  }
}