{
  "contractName": "Voting",
  "abi": [
    {
      "anonymous": false,
      "inputs": [
        {
          "indexed": true,
          "internalType": "address",
          "name": "previousOwner",
          "type": "address"
        },
        {
          "indexed": true,
          "internalType": "address",
          "name": "newOwner",
          "type": "address"
        }
      ],
      "name": "OwnershipTransferred",
      "type": "event"
    },
    {
      "anonymous": false,
      "inputs": [
        {
          "indexed": false,
          "internalType": "uint256",
          "name": "proposalId",
          "type": "uint256"
        }
      ],
      "name": "ProposalRegistered",
      "type": "event"
    },
    {
      "anonymous": false,
      "inputs": [
        {
          "indexed": false,
          "internalType": "address",
          "name": "voter",
          "type": "address"
        },
        {
          "indexed": false,
          "internalType": "uint256",
          "name": "proposalId",
          "type": "uint256"
        }
      ],
      "name": "Voted",
      "type": "event"
    },
    {
      "anonymous": false,
      "inputs": [
        {
          "indexed": false,
          "internalType": "address",
          "name": "voterAddress",
          "type": "address"
        }
      ],
      "name": "VoterRegistered",
      "type": "event"
    },
    {
      "anonymous": false,
      "inputs": [
        {
          "indexed": false,
          "internalType": "enum Voting.WorkflowStatus",
          "name": "previousStatus",
          "type": "uint8"
        },
        {
          "indexed": false,
          "internalType": "enum Voting.WorkflowStatus",
          "name": "newStatus",
          "type": "uint8"
        }
      ],
      "name": "WorkflowStatusChange",
      "type": "event"
    },
    {
      "inputs": [],
      "name": "owner",
      "outputs": [
        {
          "internalType": "address",
          "name": "",
          "type": "address"
        }
      ],
      "stateMutability": "view",
      "type": "function",
      "constant": true
    },
    {
      "inputs": [
        {
          "internalType": "uint256",
          "name": "",
          "type": "uint256"
        }
      ],
      "name": "proposalsArray",
      "outputs": [
        {
          "internalType": "string",
          "name": "description",
          "type": "string"
        },
        {
          "internalType": "uint256",
          "name": "voteCount",
          "type": "uint256"
        }
      ],
      "stateMutability": "view",
      "type": "function",
      "constant": true
    },
    {
      "inputs": [],
      "name": "renounceOwnership",
      "outputs": [],
      "stateMutability": "nonpayable",
      "type": "function"
    },
    {
      "inputs": [
        {
          "internalType": "address",
          "name": "newOwner",
          "type": "address"
        }
      ],
      "name": "transferOwnership",
      "outputs": [],
      "stateMutability": "nonpayable",
      "type": "function"
    },
    {
      "inputs": [],
      "name": "workflowStatus",
      "outputs": [
        {
          "internalType": "enum Voting.WorkflowStatus",
          "name": "",
          "type": "uint8"
        }
      ],
      "stateMutability": "view",
      "type": "function",
      "constant": true
    },
    {
      "inputs": [],
      "name": "getWorkflowStatus",
      "outputs": [
        {
          "internalType": "enum Voting.WorkflowStatus",
          "name": "status",
          "type": "uint8"
        }
      ],
      "stateMutability": "view",
      "type": "function",
      "constant": true
    },
    {
      "inputs": [
        {
          "internalType": "address",
          "name": "_addr",
          "type": "address"
        }
      ],
      "name": "getVoter",
      "outputs": [
        {
          "components": [
            {
              "internalType": "bool",
              "name": "isRegistered",
              "type": "bool"
            },
            {
              "internalType": "bool",
              "name": "hasVoted",
              "type": "bool"
            },
            {
              "internalType": "uint256",
              "name": "votedProposalId",
              "type": "uint256"
            }
          ],
          "internalType": "struct Voting.Voter",
          "name": "",
          "type": "tuple"
        }
      ],
      "stateMutability": "view",
      "type": "function",
      "constant": true
    },
    {
      "inputs": [
        {
          "internalType": "uint256",
          "name": "_id",
          "type": "uint256"
        }
      ],
      "name": "getOneProposal",
      "outputs": [
        {
          "components": [
            {
              "internalType": "string",
              "name": "description",
              "type": "string"
            },
            {
              "internalType": "uint256",
              "name": "voteCount",
              "type": "uint256"
            }
          ],
          "internalType": "struct Voting.Proposal",
          "name": "",
          "type": "tuple"
        }
      ],
      "stateMutability": "view",
      "type": "function",
      "constant": true
    },
    {
      "inputs": [],
      "name": "getWinners",
      "outputs": [
        {
          "components": [
            {
              "internalType": "string",
              "name": "description",
              "type": "string"
            },
            {
              "internalType": "uint256",
              "name": "voteCount",
              "type": "uint256"
            }
          ],
          "internalType": "struct Voting.Proposal[]",
          "name": "",
          "type": "tuple[]"
        }
      ],
      "stateMutability": "view",
      "type": "function",
      "constant": true
    },
    {
      "inputs": [],
      "name": "getWinner",
      "outputs": [
        {
          "components": [
            {
              "internalType": "string",
              "name": "description",
              "type": "string"
            },
            {
              "internalType": "uint256",
              "name": "voteCount",
              "type": "uint256"
            }
          ],
          "internalType": "struct Voting.Proposal",
          "name": "",
          "type": "tuple"
        }
      ],
      "stateMutability": "view",
      "type": "function",
      "constant": true
    },
    {
      "inputs": [
        {
          "internalType": "address",
          "name": "_addr",
          "type": "address"
        }
      ],
      "name": "addVoter",
      "outputs": [],
      "stateMutability": "nonpayable",
      "type": "function"
    },
    {
      "inputs": [
        {
          "internalType": "string",
          "name": "_desc",
          "type": "string"
        }
      ],
      "name": "addProposal",
      "outputs": [],
      "stateMutability": "nonpayable",
      "type": "function"
    },
    {
      "inputs": [
        {
          "internalType": "uint256",
          "name": "_id",
          "type": "uint256"
        }
      ],
      "name": "setVote",
      "outputs": [],
      "stateMutability": "nonpayable",
      "type": "function"
    },
    {
      "inputs": [],
      "name": "startProposalsRegistering",
      "outputs": [],
      "stateMutability": "nonpayable",
      "type": "function"
    },
    {
      "inputs": [],
      "name": "endProposalsRegistering",
      "outputs": [],
      "stateMutability": "nonpayable",
      "type": "function"
    },
    {
      "inputs": [],
      "name": "startVotingSession",
      "outputs": [],
      "stateMutability": "nonpayable",
      "type": "function"
    },
    {
      "inputs": [],
      "name": "endVotingSession",
      "outputs": [],
      "stateMutability": "nonpayable",
      "type": "function"
    },
    {
      "inputs": [],
      "name": "tallyVotesDraw",
      "outputs": [],
      "stateMutability": "nonpayable",
      "type": "function"
    },
    {
      "inputs": [],
      "name": "tallyVotes",
      "outputs": [],
      "stateMutability": "nonpayable",
      "type": "function"
    }
  ],
  "bytecode": "0x60806040523480156200001157600080fd5b5062000032620000266200003860201b60201c565b6200004060201b60201c565b62000104565b600033905090565b60008060009054906101000a900473ffffffffffffffffffffffffffffffffffffffff169050816000806101000a81548173ffffffffffffffffffffffffffffffffffffffff021916908373ffffffffffffffffffffffffffffffffffffffff1602179055508173ffffffffffffffffffffffffffffffffffffffff168173ffffffffffffffffffffffffffffffffffffffff167f8be0079c531659141344cd1fd0a4f28419497f9722a3daafe3b4186f6b6457e060405160405180910390a35050565b612ee780620001146000396000f3fe608060405234801561001057600080fd5b50600436106101215760003560e01c8063a7bfab16116100ad578063ee74c67811610071578063ee74c67814610272578063f2fde38b1461027c578063f4ab9adf14610298578063f75d64a6146102b4578063f86c6779146102d257610121565b8063a7bfab1614610206578063c7038a4e14610210578063c88af42f1461021a578063d4f50f9814610224578063df15c37e1461025457610121565b8063715018a6116100f4578063715018a6146101725780638da5cb5b1461017c5780638e7ea5b21461019a578063a1edffa2146101b8578063a2788cce146101d657610121565b8063230796ae146101265780632fdae3c514610142578063378a21781461015e5780633beee92e14610168575b600080fd5b610140600480360381019061013b9190611fc7565b610303565b005b61015c60048036038101906101579190611f7e565b610600565b005b610166610844565b005b610170610a25565b005b61017a610d89565b005b610184610e11565b6040516101919190612426565b60405180910390f35b6101a2610e3a565b6040516101af9190612722565b60405180910390f35b6101c0610f87565b6040516101cd919061248c565b60405180910390f35b6101f060048036038101906101eb9190611fc7565b610f9a565b6040516101fd9190612722565b60405180910390f35b61020e611072565b005b6102186111cb565b005b610222611325565b005b61023e60048036038101906102399190611f51565b61147f565b60405161024b9190612744565b60405180910390f35b61025c6115a7565b604051610269919061246a565b60405180910390f35b61027a611717565b005b61029660048036038101906102919190611f51565b611871565b005b6102b260048036038101906102ad9190611f51565b611969565b005b6102bc611b87565b6040516102c9919061248c565b60405180910390f35b6102ec60048036038101906102e79190611fc7565b611b9e565b6040516102fa9291906124f2565b60405180910390f35b600660003373ffffffffffffffffffffffffffffffffffffffff1673ffffffffffffffffffffffffffffffffffffffff16815260200190815260200160002060000160009054906101000a900460ff16610392576040517f08c379a000000000000000000000000000000000000000000000000000000000815260040161038990612562565b60405180910390fd5b600360058111156103a6576103a56129f4565b5b600460009054906101000a900460ff1660058111156103c8576103c76129f4565b5b14610408576040517f08c379a00000000000000000000000000000000000000000000000000000000081526004016103ff90612582565b60405180910390fd5b60011515600660003373ffffffffffffffffffffffffffffffffffffffff1673ffffffffffffffffffffffffffffffffffffffff16815260200190815260200160002060000160019054906101000a900460ff161515141561049f576040517f08c379a000000000000000000000000000000000000000000000000000000000815260040161049690612702565b60405180910390fd5b6005805490508111156104e7576040517f08c379a00000000000000000000000000000000000000000000000000000000081526004016104de90612602565b60405180910390fd5b80600660003373ffffffffffffffffffffffffffffffffffffffff1673ffffffffffffffffffffffffffffffffffffffff168152602001908152602001600020600101819055506001600660003373ffffffffffffffffffffffffffffffffffffffff1673ffffffffffffffffffffffffffffffffffffffff16815260200190815260200160002060000160016101000a81548160ff0219169083151502179055506005818154811061059d5761059c612a52565b5b906000526020600020906002020160010160008154809291906105bf9061297c565b91905055507f4d99b957a2bc29a30ebd96a7be8e68fe50a3c701db28a91436490b7d53870ca433826040516105f5929190612441565b60405180910390a150565b600660003373ffffffffffffffffffffffffffffffffffffffff1673ffffffffffffffffffffffffffffffffffffffff16815260200190815260200160002060000160009054906101000a900460ff1661068f576040517f08c379a000000000000000000000000000000000000000000000000000000000815260040161068690612562565b60405180910390fd5b600160058111156106a3576106a26129f4565b5b600460009054906101000a900460ff1660058111156106c5576106c46129f4565b5b14610705576040517f08c379a00000000000000000000000000000000000000000000000000000000081526004016106fc906125a2565b60405180910390fd5b60405160200161071490612662565b604051602081830303815290604052805190602001208160405160200161073b91906124d0565b604051602081830303815290604052805190602001201415610792576040517f08c379a0000000000000000000000000000000000000000000000000000000008152600401610789906125e2565b60405180910390fd5b61079a611d26565b818160000181905250600581908060018154018082558091505060019003906000526020600020906002020160009091909190915060008201518160000190805190602001906107eb929190611d40565b506020820151816001015550507f92e393e9b54e2f801d3ea4beb0c5e71a21cc34a5d34b77d0fb8a3aa1650dc18f600160058054905061082b9190612836565b604051610838919061275f565b60405180910390a15050565b61084c611c5a565b73ffffffffffffffffffffffffffffffffffffffff1661086a610e11565b73ffffffffffffffffffffffffffffffffffffffff16146108c0576040517f08c379a00000000000000000000000000000000000000000000000000000000081526004016108b7906125c2565b60405180910390fd5b600460058111156108d4576108d36129f4565b5b600460009054906101000a900460ff1660058111156108f6576108f56129f4565b5b14610936576040517f08c379a000000000000000000000000000000000000000000000000000000000815260040161092d906126c2565b60405180910390fd5b600080600090505b6005805490508110156109b4576005828154811061095f5761095e612a52565b5b9060005260206000209060020201600101546005828154811061098557610984612a52565b5b90600052602060002090600202016001015411156109a1578091505b80806109ac9061297c565b91505061093e565b50806003819055506005600460006101000a81548160ff021916908360058111156109e2576109e16129f4565b5b02179055507f0a97a4ee45751e2abf3e4fc8946939630b11b371ea8ae39ccdc3056e98f5cc3f60046005604051610a1a9291906124a7565b60405180910390a150565b610a2d611c5a565b73ffffffffffffffffffffffffffffffffffffffff16610a4b610e11565b73ffffffffffffffffffffffffffffffffffffffff1614610aa1576040517f08c379a0000000000000000000000000000000000000000000000000000000008152600401610a98906125c2565b60405180910390fd5b60046005811115610ab557610ab46129f4565b5b600460009054906101000a900460ff166005811115610ad757610ad66129f4565b5b14610b17576040517f08c379a0000000000000000000000000000000000000000000000000000000008152600401610b0e906126c2565b60405180910390fd5b6000610b21611dc6565b600080600090505b600580549050811015610c2e576005821015610c1b578360058281548110610b5457610b53612a52565b5b9060005260206000209060020201600101541415610b985780838360058110610b8057610b7f612a52565b5b6020020181815250508180610b949061297c565b9250505b8360058281548110610bad57610bac612a52565b5b9060005260206000209060020201600101541115610c1a57610bcd611dc6565b92508083600060058110610be457610be3612a52565b5b60200201818152505060058181548110610c0157610c00612a52565b5b9060005260206000209060020201600101549350600191505b5b8080610c269061297c565b915050610b29565b5060005b81811015610d1d576001838260058110610c4f57610c4e612a52565b5b6020020151908060018154018082558091505060019003906000526020600020016000909190919091505560026005848360058110610c9157610c90612a52565b5b602002015181548110610ca757610ca6612a52565b5b906000526020600020906002020190806001815401808255809150506001900390600052602060002090600202016000909190919091506000820181600001908054610cf290612919565b610cfd929190611de8565b506001820154816001015550508080610d159061297c565b915050610c32565b506005600460006101000a81548160ff02191690836005811115610d4457610d436129f4565b5b02179055507f0a97a4ee45751e2abf3e4fc8946939630b11b371ea8ae39ccdc3056e98f5cc3f60046005604051610d7c9291906124a7565b60405180910390a1505050565b610d91611c5a565b73ffffffffffffffffffffffffffffffffffffffff16610daf610e11565b73ffffffffffffffffffffffffffffffffffffffff1614610e05576040517f08c379a0000000000000000000000000000000000000000000000000000000008152600401610dfc906125c2565b60405180910390fd5b610e0f6000611c62565b565b60008060009054906101000a900473ffffffffffffffffffffffffffffffffffffffff16905090565b610e42611d26565b600580811115610e5557610e546129f4565b5b600460009054906101000a900460ff166005811115610e7757610e766129f4565b5b14610eb7576040517f08c379a0000000000000000000000000000000000000000000000000000000008152600401610eae90612642565b60405180910390fd5b600560035481548110610ecd57610ecc612a52565b5b9060005260206000209060020201604051806040016040529081600082018054610ef690612919565b80601f0160208091040260200160405190810160405280929190818152602001828054610f2290612919565b8015610f6f5780601f10610f4457610100808354040283529160200191610f6f565b820191906000526020600020905b815481529060010190602001808311610f5257829003601f168201915b50505050508152602001600182015481525050905090565b600460009054906101000a900460ff1681565b610fa2611d26565b60058281548110610fb657610fb5612a52565b5b9060005260206000209060020201604051806040016040529081600082018054610fdf90612919565b80601f016020809104026020016040519081016040528092919081815260200182805461100b90612919565b80156110585780601f1061102d57610100808354040283529160200191611058565b820191906000526020600020905b81548152906001019060200180831161103b57829003601f168201915b505050505081526020016001820154815250509050919050565b61107a611c5a565b73ffffffffffffffffffffffffffffffffffffffff16611098610e11565b73ffffffffffffffffffffffffffffffffffffffff16146110ee576040517f08c379a00000000000000000000000000000000000000000000000000000000081526004016110e5906125c2565b60405180910390fd5b60036005811115611102576111016129f4565b5b600460009054906101000a900460ff166005811115611124576111236129f4565b5b14611164576040517f08c379a000000000000000000000000000000000000000000000000000000000815260040161115b90612582565b60405180910390fd5b60048060006101000a81548160ff02191690836005811115611189576111886129f4565b5b02179055507f0a97a4ee45751e2abf3e4fc8946939630b11b371ea8ae39ccdc3056e98f5cc3f600360046040516111c19291906124a7565b60405180910390a1565b6111d3611c5a565b73ffffffffffffffffffffffffffffffffffffffff166111f1610e11565b73ffffffffffffffffffffffffffffffffffffffff1614611247576040517f08c379a000000000000000000000000000000000000000000000000000000000815260040161123e906125c2565b60405180910390fd5b6000600581111561125b5761125a6129f4565b5b600460009054906101000a900460ff16600581111561127d5761127c6129f4565b5b146112bd576040517f08c379a00000000000000000000000000000000000000000000000000000000081526004016112b490612682565b60405180910390fd5b6001600460006101000a81548160ff021916908360058111156112e3576112e26129f4565b5b02179055507f0a97a4ee45751e2abf3e4fc8946939630b11b371ea8ae39ccdc3056e98f5cc3f6000600160405161131b9291906124a7565b60405180910390a1565b61132d611c5a565b73ffffffffffffffffffffffffffffffffffffffff1661134b610e11565b73ffffffffffffffffffffffffffffffffffffffff16146113a1576040517f08c379a0000000000000000000000000000000000000000000000000000000008152600401611398906125c2565b60405180910390fd5b600160058111156113b5576113b46129f4565b5b600460009054906101000a900460ff1660058111156113d7576113d66129f4565b5b14611417576040517f08c379a000000000000000000000000000000000000000000000000000000000815260040161140e906126a2565b60405180910390fd5b6002600460006101000a81548160ff0219169083600581111561143d5761143c6129f4565b5b02179055507f0a97a4ee45751e2abf3e4fc8946939630b11b371ea8ae39ccdc3056e98f5cc3f600160026040516114759291906124a7565b60405180910390a1565b611487611e75565b600660003373ffffffffffffffffffffffffffffffffffffffff1673ffffffffffffffffffffffffffffffffffffffff16815260200190815260200160002060000160009054906101000a900460ff16611516576040517f08c379a000000000000000000000000000000000000000000000000000000000815260040161150d90612562565b60405180910390fd5b600660008373ffffffffffffffffffffffffffffffffffffffff1673ffffffffffffffffffffffffffffffffffffffff1681526020019081526020016000206040518060600160405290816000820160009054906101000a900460ff161515151581526020016000820160019054906101000a900460ff161515151581526020016001820154815250509050919050565b60606005808111156115bc576115bb6129f4565b5b600460009054906101000a900460ff1660058111156115de576115dd6129f4565b5b1461161e576040517f08c379a000000000000000000000000000000000000000000000000000000000815260040161161590612642565b60405180910390fd5b6002805480602002602001604051908101604052809291908181526020016000905b8282101561170e578382906000526020600020906002020160405180604001604052908160008201805461167390612919565b80601f016020809104026020016040519081016040528092919081815260200182805461169f90612919565b80156116ec5780601f106116c1576101008083540402835291602001916116ec565b820191906000526020600020905b8154815290600101906020018083116116cf57829003601f168201915b5050505050815260200160018201548152505081526020019060010190611640565b50505050905090565b61171f611c5a565b73ffffffffffffffffffffffffffffffffffffffff1661173d610e11565b73ffffffffffffffffffffffffffffffffffffffff1614611793576040517f08c379a000000000000000000000000000000000000000000000000000000000815260040161178a906125c2565b60405180910390fd5b600260058111156117a7576117a66129f4565b5b600460009054906101000a900460ff1660058111156117c9576117c86129f4565b5b14611809576040517f08c379a000000000000000000000000000000000000000000000000000000000815260040161180090612622565b60405180910390fd5b6003600460006101000a81548160ff0219169083600581111561182f5761182e6129f4565b5b02179055507f0a97a4ee45751e2abf3e4fc8946939630b11b371ea8ae39ccdc3056e98f5cc3f600260036040516118679291906124a7565b60405180910390a1565b611879611c5a565b73ffffffffffffffffffffffffffffffffffffffff16611897610e11565b73ffffffffffffffffffffffffffffffffffffffff16146118ed576040517f08c379a00000000000000000000000000000000000000000000000000000000081526004016118e4906125c2565b60405180910390fd5b600073ffffffffffffffffffffffffffffffffffffffff168173ffffffffffffffffffffffffffffffffffffffff16141561195d576040517f08c379a000000000000000000000000000000000000000000000000000000000815260040161195490612522565b60405180910390fd5b61196681611c62565b50565b611971611c5a565b73ffffffffffffffffffffffffffffffffffffffff1661198f610e11565b73ffffffffffffffffffffffffffffffffffffffff16146119e5576040517f08c379a00000000000000000000000000000000000000000000000000000000081526004016119dc906125c2565b60405180910390fd5b600060058111156119f9576119f86129f4565b5b600460009054906101000a900460ff166005811115611a1b57611a1a6129f4565b5b14611a5b576040517f08c379a0000000000000000000000000000000000000000000000000000000008152600401611a52906126e2565b60405180910390fd5b60011515600660008373ffffffffffffffffffffffffffffffffffffffff1673ffffffffffffffffffffffffffffffffffffffff16815260200190815260200160002060000160009054906101000a900460ff1615151415611af2576040517f08c379a0000000000000000000000000000000000000000000000000000000008152600401611ae990612542565b60405180910390fd5b6001600660008373ffffffffffffffffffffffffffffffffffffffff1673ffffffffffffffffffffffffffffffffffffffff16815260200190815260200160002060000160006101000a81548160ff0219169083151502179055507fb6be2187d059cc2a55fe29e0e503b566e1e0f8c8780096e185429350acffd3dd81604051611b7c9190612426565b60405180910390a150565b6000600460009054906101000a900460ff16905090565b60058181548110611bae57600080fd5b9060005260206000209060020201600091509050806000018054611bd190612919565b80601f0160208091040260200160405190810160405280929190818152602001828054611bfd90612919565b8015611c4a5780601f10611c1f57610100808354040283529160200191611c4a565b820191906000526020600020905b815481529060010190602001808311611c2d57829003601f168201915b5050505050908060010154905082565b600033905090565b60008060009054906101000a900473ffffffffffffffffffffffffffffffffffffffff169050816000806101000a81548173ffffffffffffffffffffffffffffffffffffffff021916908373ffffffffffffffffffffffffffffffffffffffff1602179055508173ffffffffffffffffffffffffffffffffffffffff168173ffffffffffffffffffffffffffffffffffffffff167f8be0079c531659141344cd1fd0a4f28419497f9722a3daafe3b4186f6b6457e060405160405180910390a35050565b604051806040016040528060608152602001600081525090565b828054611d4c90612919565b90600052602060002090601f016020900481019282611d6e5760008555611db5565b82601f10611d8757805160ff1916838001178555611db5565b82800160010185558215611db5579182015b82811115611db4578251825591602001919060010190611d99565b5b509050611dc29190611e9a565b5090565b6040518060a00160405280600590602082028036833780820191505090505090565b828054611df490612919565b90600052602060002090601f016020900481019282611e165760008555611e64565b82601f10611e275780548555611e64565b82800160010185558215611e6457600052602060002091601f016020900482015b82811115611e63578254825591600101919060010190611e48565b5b509050611e719190611e9a565b5090565b6040518060600160405280600015158152602001600015158152602001600081525090565b5b80821115611eb3576000816000905550600101611e9b565b5090565b6000611eca611ec58461279f565b61277a565b905082815260208101848484011115611ee657611ee5612ab5565b5b611ef18482856128d7565b509392505050565b600081359050611f0881612e83565b92915050565b600082601f830112611f2357611f22612ab0565b5b8135611f33848260208601611eb7565b91505092915050565b600081359050611f4b81612e9a565b92915050565b600060208284031215611f6757611f66612abf565b5b6000611f7584828501611ef9565b91505092915050565b600060208284031215611f9457611f93612abf565b5b600082013567ffffffffffffffff811115611fb257611fb1612aba565b5b611fbe84828501611f0e565b91505092915050565b600060208284031215611fdd57611fdc612abf565b5b6000611feb84828501611f3c565b91505092915050565b6000612000838361234c565b905092915050565b6120118161286a565b82525050565b6000612022826127e0565b61202c8185612803565b93508360208202850161203e856127d0565b8060005b8581101561207a578484038952815161205b8582611ff4565b9450612066836127f6565b925060208a01995050600181019050612042565b50829750879550505050505092915050565b6120958161287c565b82525050565b6120a4816128c5565b82525050565b60006120b5826127eb565b6120bf8185612814565b93506120cf8185602086016128e6565b6120d881612ac4565b840191505092915050565b60006120ee826127eb565b6120f88185612825565b93506121088185602086016128e6565b61211181612ac4565b840191505092915050565b6000612129602683612825565b915061213482612ad5565b604082019050919050565b600061214c601283612825565b915061215782612b24565b602082019050919050565b600061216f601283612825565b915061217a82612b4d565b602082019050919050565b6000612192602183612825565b915061219d82612b76565b604082019050919050565b60006121b5601d83612825565b91506121c082612bc5565b602082019050919050565b60006121d8602083612825565b91506121e382612bee565b602082019050919050565b60006121fb602383612825565b915061220682612c17565b604082019050919050565b600061221e601283612825565b915061222982612c66565b602082019050919050565b6000612241602b83612825565b915061224c82612c8f565b604082019050919050565b6000612264601983612825565b915061226f82612cde565b602082019050919050565b6000612287600083612825565b915061229282612d07565b600082019050919050565b60006122aa602983612825565b91506122b582612d0a565b604082019050919050565b60006122cd602883612825565b91506122d882612d59565b604082019050919050565b60006122f0602a83612825565b91506122fb82612da8565b604082019050919050565b6000612313602383612825565b915061231e82612df7565b604082019050919050565b6000612336601683612825565b915061234182612e46565b602082019050919050565b6000604083016000830151848203600086015261236982826120aa565b915050602083015161237e6020860182612408565b508091505092915050565b600060408301600083015184820360008601526123a682826120aa565b91505060208301516123bb6020860182612408565b508091505092915050565b6060820160008201516123dc600085018261208c565b5060208201516123ef602085018261208c565b5060408201516124026040850182612408565b50505050565b612411816128bb565b82525050565b612420816128bb565b82525050565b600060208201905061243b6000830184612008565b92915050565b60006040820190506124566000830185612008565b6124636020830184612417565b9392505050565b600060208201905081810360008301526124848184612017565b905092915050565b60006020820190506124a1600083018461209b565b92915050565b60006040820190506124bc600083018561209b565b6124c9602083018461209b565b9392505050565b600060208201905081810360008301526124ea81846120e3565b905092915050565b6000604082019050818103600083015261250c81856120e3565b905061251b6020830184612417565b9392505050565b6000602082019050818103600083015261253b8161211c565b9050919050565b6000602082019050818103600083015261255b8161213f565b9050919050565b6000602082019050818103600083015261257b81612162565b9050919050565b6000602082019050818103600083015261259b81612185565b9050919050565b600060208201905081810360008301526125bb816121a8565b9050919050565b600060208201905081810360008301526125db816121cb565b9050919050565b600060208201905081810360008301526125fb816121ee565b9050919050565b6000602082019050818103600083015261261b81612211565b9050919050565b6000602082019050818103600083015261263b81612234565b9050919050565b6000602082019050818103600083015261265b81612257565b9050919050565b6000602082019050818103600083015261267b8161227a565b9050919050565b6000602082019050818103600083015261269b8161229d565b9050919050565b600060208201905081810360008301526126bb816122c0565b9050919050565b600060208201905081810360008301526126db816122e3565b9050919050565b600060208201905081810360008301526126fb81612306565b9050919050565b6000602082019050818103600083015261271b81612329565b9050919050565b6000602082019050818103600083015261273c8184612389565b905092915050565b600060608201905061275960008301846123c6565b92915050565b60006020820190506127746000830184612417565b92915050565b6000612784612795565b9050612790828261294b565b919050565b6000604051905090565b600067ffffffffffffffff8211156127ba576127b9612a81565b5b6127c382612ac4565b9050602081019050919050565b6000819050602082019050919050565b600081519050919050565b600081519050919050565b6000602082019050919050565b600082825260208201905092915050565b600082825260208201905092915050565b600082825260208201905092915050565b6000612841826128bb565b915061284c836128bb565b92508282101561285f5761285e6129c5565b5b828203905092915050565b60006128758261289b565b9050919050565b60008115159050919050565b600081905061289682612e6f565b919050565b600073ffffffffffffffffffffffffffffffffffffffff82169050919050565b6000819050919050565b60006128d082612888565b9050919050565b82818337600083830152505050565b60005b838110156129045780820151818401526020810190506128e9565b83811115612913576000848401525b50505050565b6000600282049050600182168061293157607f821691505b6020821081141561294557612944612a23565b5b50919050565b61295482612ac4565b810181811067ffffffffffffffff8211171561297357612972612a81565b5b80604052505050565b6000612987826128bb565b91507fffffffffffffffffffffffffffffffffffffffffffffffffffffffffffffffff8214156129ba576129b96129c5565b5b600182019050919050565b7f4e487b7100000000000000000000000000000000000000000000000000000000600052601160045260246000fd5b7f4e487b7100000000000000000000000000000000000000000000000000000000600052602160045260246000fd5b7f4e487b7100000000000000000000000000000000000000000000000000000000600052602260045260246000fd5b7f4e487b7100000000000000000000000000000000000000000000000000000000600052603260045260246000fd5b7f4e487b7100000000000000000000000000000000000000000000000000000000600052604160045260246000fd5b600080fd5b600080fd5b600080fd5b600080fd5b6000601f19601f8301169050919050565b7f4f776e61626c653a206e6577206f776e657220697320746865207a65726f206160008201527f6464726573730000000000000000000000000000000000000000000000000000602082015250565b7f416c726561647920726567697374657265640000000000000000000000000000600082015250565b7f596f75277265206e6f74206120766f7465720000000000000000000000000000600082015250565b7f566f74696e672073657373696f6e20686176656e74207374617274656420796560008201527f7400000000000000000000000000000000000000000000000000000000000000602082015250565b7f50726f706f73616c7320617265206e6f7420616c6c6f77656420796574000000600082015250565b7f4f776e61626c653a2063616c6c6572206973206e6f7420746865206f776e6572600082015250565b7f566f7573206e6520706f7576657a20706173206e65207269656e2070726f706f60008201527f7365720000000000000000000000000000000000000000000000000000000000602082015250565b7f50726f706f73616c206e6f7420666f756e640000000000000000000000000000600082015250565b7f5265676973746572696e672070726f706f73616c73207068617365206973206e60008201527f6f742066696e6973686564000000000000000000000000000000000000000000602082015250565b7f566f74657320617265206e6f742074616c6c6965642079657400000000000000600082015250565b50565b7f5265676973746572696e672070726f706f73616c732063616e7420626520737460008201527f6172746564206e6f770000000000000000000000000000000000000000000000602082015250565b7f5265676973746572696e672070726f706f73616c7320686176656e742073746160008201527f7274656420796574000000000000000000000000000000000000000000000000602082015250565b7f43757272656e7420737461747573206973206e6f7420766f74696e672073657360008201527f73696f6e20656e64656400000000000000000000000000000000000000000000602082015250565b7f566f7465727320726567697374726174696f6e206973206e6f74206f70656e2060008201527f7965740000000000000000000000000000000000000000000000000000000000602082015250565b7f596f75206861766520616c726561647920766f74656400000000000000000000600082015250565b60068110612e8057612e7f6129f4565b5b50565b612e8c8161286a565b8114612e9757600080fd5b50565b612ea3816128bb565b8114612eae57600080fd5b5056fea26469706673582212200c252ca128546706d8d4fccb16090cd5317acaec1be7a0734e9e8bfc9651bb0a64736f6c63430008070033",
  "immutableReferences": {},
  "source": "// SPDX-License-Identifier: MIT\n\npragma solidity 0.8.7;\nimport \"./OpenZeppelin/access/Ownable.sol\";\n\n\ncontract Voting is Ownable {\n\n    // arrays for draw, uint for single\n    uint[] winningProposalsID;\n    Proposal[] winningProposals;\n    \n    uint winningProposalID;\n    \n    struct Voter {\n        bool isRegistered;\n        bool hasVoted;\n        uint votedProposalId;\n    }\n\n    struct Proposal {\n        string description;\n        uint voteCount;\n    }\n\n    enum  WorkflowStatus {\n        RegisteringVoters,\n        ProposalsRegistrationStarted,\n        ProposalsRegistrationEnded,\n        VotingSessionStarted,\n        VotingSessionEnded,\n        VotesTallied\n    }\n\n    WorkflowStatus public workflowStatus;\n    Proposal[] public proposalsArray;\n    mapping (address => Voter) private voters;\n\n    event VoterRegistered(address voterAddress); \n    event WorkflowStatusChange(WorkflowStatus previousStatus, WorkflowStatus newStatus);\n    event ProposalRegistered(uint proposalId);\n    event Voted (address voter, uint proposalId);\n\n    modifier onlyVoters() {\n        require(voters[msg.sender].isRegistered, \"You're not a voter\");\n        _;\n    }\n    \n    // on peut faire un modifier pour les tats\n\n    // ::::::::::::: GETTERS ::::::::::::: //\n\n    function getWorkflowStatus() external view returns (WorkflowStatus status) {\n        return workflowStatus;\n    }\n\n    function getVoter(address _addr) external onlyVoters view returns (Voter memory) {\n        return voters[_addr];\n    }\n    \n    function getOneProposal(uint _id) external view returns (Proposal memory) {\n        return proposalsArray[_id];\n    }\n\n    // ne pas tester\n    function getWinners() external view returns (Proposal[] memory) {\n        require(workflowStatus == WorkflowStatus.VotesTallied, 'Votes are not tallied yet');\n        return winningProposals; // return proposalsArray[winningProposalID];\n    }\n\n    function getWinner() external view returns (Proposal memory) {\n        require(workflowStatus == WorkflowStatus.VotesTallied, 'Votes are not tallied yet');\n        return proposalsArray[winningProposalID];\n    }\n \n    // ::::::::::::: REGISTRATION ::::::::::::: // \n\n    function addVoter(address _addr) external onlyOwner {\n        require(workflowStatus == WorkflowStatus.RegisteringVoters, 'Voters registration is not open yet');\n        require(voters[_addr].isRegistered != true, 'Already registered');\n    \n        voters[_addr].isRegistered = true;\n        emit VoterRegistered(_addr);\n    }\n \n    /* facultatif\n     * function deleteVoter(address _addr) external onlyOwner {\n     *   require(workflowStatus == WorkflowStatus.RegisteringVoters, 'Voters registration is not open yet');\n     *   require(voters[_addr].isRegistered == true, 'Not registered.');\n     *   voters[_addr].isRegistered = false;\n     *  emit VoterRegistered(_addr);\n    }*/\n\n    // ::::::::::::: PROPOSAL ::::::::::::: // \n\n    function addProposal(string memory _desc) external onlyVoters {\n        require(workflowStatus == WorkflowStatus.ProposalsRegistrationStarted, 'Proposals are not allowed yet');\n        require(keccak256(abi.encode(_desc)) != keccak256(abi.encode(\"\")), 'Vous ne pouvez pas ne rien proposer'); // facultatif\n        // voir que desc est different des autres\n\n        Proposal memory proposal;\n        proposal.description = _desc;\n        proposalsArray.push(proposal);\n        emit ProposalRegistered(proposalsArray.length-1);\n    }\n\n    // ::::::::::::: VOTE ::::::::::::: //\n\n    function setVote( uint _id) external onlyVoters {\n        require(workflowStatus == WorkflowStatus.VotingSessionStarted, 'Voting session havent started yet');\n        require(voters[msg.sender].hasVoted != true, 'You have already voted');\n        require(_id <= proposalsArray.length, 'Proposal not found'); // pas oblig, et pas besoin du >0 car uint\n\n        voters[msg.sender].votedProposalId = _id;\n        voters[msg.sender].hasVoted = true;\n        proposalsArray[_id].voteCount++;\n\n        emit Voted(msg.sender, _id);\n    }\n\n    // ::::::::::::: STATE ::::::::::::: //\n\n    /* on pourrait factoriser tout a: par exemple:\n    *  function setWorkflowStatus(WorkflowStatus _num) public onlyOwner {\n    *    WorkflowStatus pnum = workflowStatus;\n    *    workflowStatus = _num;\n    *    emit WorkflowStatusChange(pnum, workflowStatus);\n        } */ \n\n\n    function startProposalsRegistering() external onlyOwner {\n        require(workflowStatus == WorkflowStatus.RegisteringVoters, 'Registering proposals cant be started now');\n        workflowStatus = WorkflowStatus.ProposalsRegistrationStarted;\n        emit WorkflowStatusChange(WorkflowStatus.RegisteringVoters, WorkflowStatus.ProposalsRegistrationStarted);\n    }\n\n    function endProposalsRegistering() external onlyOwner {\n        require(workflowStatus == WorkflowStatus.ProposalsRegistrationStarted, 'Registering proposals havent started yet');\n        workflowStatus = WorkflowStatus.ProposalsRegistrationEnded;\n        emit WorkflowStatusChange(WorkflowStatus.ProposalsRegistrationStarted, WorkflowStatus.ProposalsRegistrationEnded);\n    }\n\n    function startVotingSession() external onlyOwner {\n        require(workflowStatus == WorkflowStatus.ProposalsRegistrationEnded, 'Registering proposals phase is not finished');\n        workflowStatus = WorkflowStatus.VotingSessionStarted;\n        emit WorkflowStatusChange(WorkflowStatus.ProposalsRegistrationEnded, WorkflowStatus.VotingSessionStarted);\n    }\n\n    function endVotingSession() external onlyOwner {\n        require(workflowStatus == WorkflowStatus.VotingSessionStarted, 'Voting session havent started yet');\n        workflowStatus = WorkflowStatus.VotingSessionEnded;\n        emit WorkflowStatusChange(WorkflowStatus.VotingSessionStarted, WorkflowStatus.VotingSessionEnded);\n    }\n\n    // ne pas tester\n    function tallyVotesDraw() external onlyOwner {\n       require(workflowStatus == WorkflowStatus.VotingSessionEnded, \"Current status is not voting session ended\");\n        uint highestCount;\n        uint[5] memory winners; // egalite entre 5 proposals max\n        uint nbWinners;\n        for (uint i = 0; i < proposalsArray.length; i++) {\n            if (nbWinners<5){\n                if (proposalsArray[i].voteCount == highestCount) {\n                    winners[nbWinners]=i;\n                    nbWinners++;\n                }\n                if (proposalsArray[i].voteCount > highestCount) {\n                    delete winners;\n                    winners[0]= i;\n                    highestCount = proposalsArray[i].voteCount;\n                    nbWinners=1;\n                }\n            }\n        }\n        for(uint j=0;j<nbWinners;j++){\n            winningProposalsID.push(winners[j]);\n            winningProposals.push(proposalsArray[winners[j]]);\n        }\n        workflowStatus = WorkflowStatus.VotesTallied;\n        emit WorkflowStatusChange(WorkflowStatus.VotingSessionEnded, WorkflowStatus.VotesTallied);\n    }\n\n    function tallyVotes() external onlyOwner {\n        require(workflowStatus == WorkflowStatus.VotingSessionEnded, \"Current status is not voting session ended\");\n        uint _winningProposalId;\n        for (uint256 p = 0; p < proposalsArray.length; p++) {\n            if (proposalsArray[p].voteCount > proposalsArray[_winningProposalId].voteCount) {\n                _winningProposalId = p;\n            }\n        }\n        winningProposalID = _winningProposalId;\n        workflowStatus = WorkflowStatus.VotesTallied;\n        emit WorkflowStatusChange(WorkflowStatus.VotingSessionEnded, WorkflowStatus.VotesTallied);\n    }\n}",
  "sourcePath": "/home/sly/dev/testBox/contracts/Voting.sol",
  "compiler": {
    "name": "solc",
    "version": "0.8.7+commit.e28d00a7.Emscripten.clang"
  },
  "schemaVersion": "3.4.3",
  "updatedAt": "2021-11-26T17:26:25.363Z",
  "networkType": "ethereum",
  "devdoc": {
    "kind": "dev",
    "methods": {
      "owner()": {
        "details": "Returns the address of the current owner."
      },
      "renounceOwnership()": {
        "details": "Leaves the contract without owner. It will not be possible to call `onlyOwner` functions anymore. Can only be called by the current owner. NOTE: Renouncing ownership will leave the contract without an owner, thereby removing any functionality that is only available to the owner."
      },
      "transferOwnership(address)": {
        "details": "Transfers ownership of the contract to a new account (`newOwner`). Can only be called by the current owner."
      }
    },
    "version": 1
  },
  "userdoc": {
    "kind": "user",
    "methods": {},
    "version": 1
  }
}